{
    "_format": "hh-sol-artifact-1",
    "contractName": "cert",
    "sourceName": "contracts/Certificates.sol",
    "abi": [
        {
            "inputs": [],
            "stateMutability": "payable",
            "type": "constructor"
        },
        {
            "anonymous": false,
            "inputs": [
                {
                    "indexed": false,
                    "internalType": "uint256",
                    "name": "id",
                    "type": "uint256"
                },
                {
                    "indexed": false,
                    "internalType": "string",
                    "name": "name",
                    "type": "string"
                },
                {
                    "indexed": false,
                    "internalType": "string",
                    "name": "studentid",
                    "type": "string"
                },
                {
                    "indexed": false,
                    "internalType": "string",
                    "name": "email",
                    "type": "string"
                },
                {
                    "indexed": false,
                    "internalType": "string",
                    "name": "course",
                    "type": "string"
                },
                {
                    "indexed": false,
                    "internalType": "string",
                    "name": "date",
                    "type": "string"
                },
                {
                    "indexed": false,
                    "internalType": "string",
                    "name": "college",
                    "type": "string"
                },
                {
                    "indexed": false,
                    "internalType": "string",
                    "name": "term",
                    "type": "string"
                }
            ],
            "name": "certadded",
            "type": "event"
        },
        {
            "inputs": [
                {
                    "internalType": "string",
                    "name": "_name",
                    "type": "string"
                },
                {
                    "internalType": "string",
                    "name": "_studentid",
                    "type": "string"
                },
                {
                    "internalType": "string",
                    "name": "_email",
                    "type": "string"
                },
                {
                    "internalType": "string",
                    "name": "_course",
                    "type": "string"
                },
                {
                    "internalType": "string",
                    "name": "_date",
                    "type": "string"
                },
                {
                    "internalType": "string",
                    "name": "_college",
                    "type": "string"
                },
                {
                    "internalType": "string",
                    "name": "_term",
                    "type": "string"
                }
            ],
            "name": "addCertificate",
            "outputs": [],
            "stateMutability": "nonpayable",
            "type": "function"
        },
        {
            "inputs": [],
            "name": "certCount",
            "outputs": [
                {
                    "internalType": "uint256",
                    "name": "",
                    "type": "uint256"
                }
            ],
            "stateMutability": "view",
            "type": "function"
        },
        {
            "inputs": [],
            "name": "getAllCertificates",
            "outputs": [
                {
                    "components": [
                        {
                            "internalType": "uint256",
                            "name": "id",
                            "type": "uint256"
                        },
                        {
                            "internalType": "string",
                            "name": "name",
                            "type": "string"
                        },
                        {
                            "internalType": "string",
                            "name": "studentid",
                            "type": "string"
                        },
                        {
                            "internalType": "string",
                            "name": "email",
                            "type": "string"
                        },
                        {
                            "internalType": "string",
                            "name": "course",
                            "type": "string"
                        },
                        {
                            "internalType": "string",
                            "name": "date",
                            "type": "string"
                        },
                        {
                            "internalType": "string",
                            "name": "college",
                            "type": "string"
                        },
                        {
                            "internalType": "string",
                            "name": "term",
                            "type": "string"
                        }
                    ],
                    "internalType": "struct cert.Certificate[]",
                    "name": "",
                    "type": "tuple[]"
                }
            ],
            "stateMutability": "view",
            "type": "function"
        }
    ],
    "bytecode": "0x60806040526000600155336000806101000a81548173ffffffffffffffffffffffffffffffffffffffff021916908373ffffffffffffffffffffffffffffffffffffffff160217905550610f05806100586000396000f3fe608060405234801561001057600080fd5b50600436106100415760003560e01c806313fcfe801461004657806326673df114610064578063d4e207a214610080575b600080fd5b61004e61009e565b60405161005b919061087f565b60405180910390f35b61007e600480360381019061007991906109ea565b610506565b005b610088610634565b6040516100959190610b5f565b60405180910390f35b60606002805480602002602001604051908101604052809291908181526020016000905b828210156104fd5783829060005260206000209060080201604051806101000160405290816000820154815260200160018201805461010090610ba9565b80601f016020809104026020016040519081016040528092919081815260200182805461012c90610ba9565b80156101795780601f1061014e57610100808354040283529160200191610179565b820191906000526020600020905b81548152906001019060200180831161015c57829003601f168201915b5050505050815260200160028201805461019290610ba9565b80601f01602080910402602001604051908101604052809291908181526020018280546101be90610ba9565b801561020b5780601f106101e05761010080835404028352916020019161020b565b820191906000526020600020905b8154815290600101906020018083116101ee57829003601f168201915b5050505050815260200160038201805461022490610ba9565b80601f016020809104026020016040519081016040528092919081815260200182805461025090610ba9565b801561029d5780601f106102725761010080835404028352916020019161029d565b820191906000526020600020905b81548152906001019060200180831161028057829003601f168201915b505050505081526020016004820180546102b690610ba9565b80601f01602080910402602001604051908101604052809291908181526020018280546102e290610ba9565b801561032f5780601f106103045761010080835404028352916020019161032f565b820191906000526020600020905b81548152906001019060200180831161031257829003601f168201915b5050505050815260200160058201805461034890610ba9565b80601f016020809104026020016040519081016040528092919081815260200182805461037490610ba9565b80156103c15780601f10610396576101008083540402835291602001916103c1565b820191906000526020600020905b8154815290600101906020018083116103a457829003601f168201915b505050505081526020016006820180546103da90610ba9565b80601f016020809104026020016040519081016040528092919081815260200182805461040690610ba9565b80156104535780601f1061042857610100808354040283529160200191610453565b820191906000526020600020905b81548152906001019060200180831161043657829003601f168201915b5050505050815260200160078201805461046c90610ba9565b80601f016020809104026020016040519081016040528092919081815260200182805461049890610ba9565b80156104e55780601f106104ba576101008083540402835291602001916104e5565b820191906000526020600020905b8154815290600101906020018083116104c857829003601f168201915b505050505081525050815260200190600101906100c2565b50505050905090565b6001600081548092919061051990610c09565b9190505550600260405180610100016040528060015481526020018981526020018881526020018781526020018681526020018581526020018481526020018381525090806001815401808255809150506001900390600052602060002090600802016000909190919091506000820151816000015560208201518160010190816105a49190610dfd565b5060408201518160020190816105ba9190610dfd565b5060608201518160030190816105d09190610dfd565b5060808201518160040190816105e69190610dfd565b5060a08201518160050190816105fc9190610dfd565b5060c08201518160060190816106129190610dfd565b5060e08201518160070190816106289190610dfd565b50505050505050505050565b60015481565b600081519050919050565b600082825260208201905092915050565b6000819050602082019050919050565b6000819050919050565b61067981610666565b82525050565b600081519050919050565b600082825260208201905092915050565b60005b838110156106b957808201518184015260208101905061069e565b60008484015250505050565b6000601f19601f8301169050919050565b60006106e18261067f565b6106eb818561068a565b93506106fb81856020860161069b565b610704816106c5565b840191505092915050565b6000610100830160008301516107286000860182610670565b506020830151848203602086015261074082826106d6565b9150506040830151848203604086015261075a82826106d6565b9150506060830151848203606086015261077482826106d6565b9150506080830151848203608086015261078e82826106d6565b91505060a083015184820360a08601526107a882826106d6565b91505060c083015184820360c08601526107c282826106d6565b91505060e083015184820360e08601526107dc82826106d6565b9150508091505092915050565b60006107f5838361070f565b905092915050565b6000602082019050919050565b60006108158261063a565b61081f8185610645565b93508360208202850161083185610656565b8060005b8581101561086d578484038952815161084e85826107e9565b9450610859836107fd565b925060208a01995050600181019050610835565b50829750879550505050505092915050565b60006020820190508181036000830152610899818461080a565b905092915050565b6000604051905090565b600080fd5b600080fd5b600080fd5b600080fd5b7f4e487b7100000000000000000000000000000000000000000000000000000000600052604160045260246000fd5b6108f7826106c5565b810181811067ffffffffffffffff82111715610916576109156108bf565b5b80604052505050565b60006109296108a1565b905061093582826108ee565b919050565b600067ffffffffffffffff821115610955576109546108bf565b5b61095e826106c5565b9050602081019050919050565b82818337600083830152505050565b600061098d6109888461093a565b61091f565b9050828152602081018484840111156109a9576109a86108ba565b5b6109b484828561096b565b509392505050565b600082601f8301126109d1576109d06108b5565b5b81356109e184826020860161097a565b91505092915050565b600080600080600080600060e0888a031215610a0957610a086108ab565b5b600088013567ffffffffffffffff811115610a2757610a266108b0565b5b610a338a828b016109bc565b975050602088013567ffffffffffffffff811115610a5457610a536108b0565b5b610a608a828b016109bc565b965050604088013567ffffffffffffffff811115610a8157610a806108b0565b5b610a8d8a828b016109bc565b955050606088013567ffffffffffffffff811115610aae57610aad6108b0565b5b610aba8a828b016109bc565b945050608088013567ffffffffffffffff811115610adb57610ada6108b0565b5b610ae78a828b016109bc565b93505060a088013567ffffffffffffffff811115610b0857610b076108b0565b5b610b148a828b016109bc565b92505060c088013567ffffffffffffffff811115610b3557610b346108b0565b5b610b418a828b016109bc565b91505092959891949750929550565b610b5981610666565b82525050565b6000602082019050610b746000830184610b50565b92915050565b7f4e487b7100000000000000000000000000000000000000000000000000000000600052602260045260246000fd5b60006002820490506001821680610bc157607f821691505b602082108103610bd457610bd3610b7a565b5b50919050565b7f4e487b7100000000000000000000000000000000000000000000000000000000600052601160045260246000fd5b6000610c1482610666565b91507fffffffffffffffffffffffffffffffffffffffffffffffffffffffffffffffff8203610c4657610c45610bda565b5b600182019050919050565b60008190508160005260206000209050919050565b60006020601f8301049050919050565b600082821b905092915050565b600060088302610cb37fffffffffffffffffffffffffffffffffffffffffffffffffffffffffffffffff82610c76565b610cbd8683610c76565b95508019841693508086168417925050509392505050565b6000819050919050565b6000610cfa610cf5610cf084610666565b610cd5565b610666565b9050919050565b6000819050919050565b610d1483610cdf565b610d28610d2082610d01565b848454610c83565b825550505050565b600090565b610d3d610d30565b610d48818484610d0b565b505050565b5b81811015610d6c57610d61600082610d35565b600181019050610d4e565b5050565b601f821115610db157610d8281610c51565b610d8b84610c66565b81016020851015610d9a578190505b610dae610da685610c66565b830182610d4d565b50505b505050565b600082821c905092915050565b6000610dd460001984600802610db6565b1980831691505092915050565b6000610ded8383610dc3565b9150826002028217905092915050565b610e068261067f565b67ffffffffffffffff811115610e1f57610e1e6108bf565b5b610e298254610ba9565b610e34828285610d70565b600060209050601f831160018114610e675760008415610e55578287015190505b610e5f8582610de1565b865550610ec7565b601f198416610e7586610c51565b60005b82811015610e9d57848901518255600182019150602085019450602081019050610e78565b86831015610eba5784890151610eb6601f891682610dc3565b8355505b6001600288020188555050505b50505050505056fea26469706673582212200ccc929857d82ff349828e42ce696c514545b6fb64e791bace9d0522b89ef16264736f6c63430008110033",
    "linkReferences": {},
    "deployedLinkReferences": {}
}